{
  "contractName": "FileStorage",
  "abi": [
    {
      "anonymous": false,
      "inputs": [
        {
          "indexed": true,
          "internalType": "address",
          "name": "user",
          "type": "address"
        },
        {
          "indexed": false,
          "internalType": "uint256",
          "name": "index",
          "type": "uint256"
        },
        {
          "indexed": false,
          "internalType": "string",
          "name": "ipfsHash",
          "type": "string"
        },
        {
          "indexed": false,
          "internalType": "string",
          "name": "fileName",
          "type": "string"
        },
        {
          "indexed": false,
          "internalType": "uint256",
          "name": "timestamp",
          "type": "uint256"
        }
      ],
      "name": "FileUpdated",
      "type": "event"
    },
    {
      "anonymous": false,
      "inputs": [
        {
          "indexed": true,
          "internalType": "address",
          "name": "user",
          "type": "address"
        },
        {
          "indexed": false,
          "internalType": "string",
          "name": "ipfsHash",
          "type": "string"
        },
        {
          "indexed": false,
          "internalType": "string",
          "name": "fileName",
          "type": "string"
        },
        {
          "indexed": false,
          "internalType": "uint256",
          "name": "timestamp",
          "type": "uint256"
        }
      ],
      "name": "FileUploaded",
      "type": "event"
    },
    {
      "inputs": [
        {
          "internalType": "string",
          "name": "_ipfsHash",
          "type": "string"
        },
        {
          "internalType": "string",
          "name": "_fileName",
          "type": "string"
        }
      ],
      "name": "uploadFile",
      "outputs": [],
      "stateMutability": "nonpayable",
      "type": "function"
    },
    {
      "inputs": [
        {
          "internalType": "uint256",
          "name": "_index",
          "type": "uint256"
        },
        {
          "internalType": "string",
          "name": "_newIpfsHash",
          "type": "string"
        },
        {
          "internalType": "string",
          "name": "_newFileName",
          "type": "string"
        }
      ],
      "name": "updateFile",
      "outputs": [],
      "stateMutability": "nonpayable",
      "type": "function"
    },
    {
      "inputs": [
        {
          "internalType": "address",
          "name": "_user",
          "type": "address"
        },
        {
          "internalType": "uint256",
          "name": "_index",
          "type": "uint256"
        }
      ],
      "name": "getFile",
      "outputs": [
        {
          "internalType": "string",
          "name": "",
          "type": "string"
        },
        {
          "internalType": "string",
          "name": "",
          "type": "string"
        },
        {
          "internalType": "uint256",
          "name": "",
          "type": "uint256"
        }
      ],
      "stateMutability": "view",
      "type": "function",
      "constant": true
    },
    {
      "inputs": [
        {
          "internalType": "address",
          "name": "_user",
          "type": "address"
        }
      ],
      "name": "getFilesCount",
      "outputs": [
        {
          "internalType": "uint256",
          "name": "",
          "type": "uint256"
        }
      ],
      "stateMutability": "view",
      "type": "function",
      "constant": true
    }
  ],
  "bytecode": "0x608060405234801561001057600080fd5b50610f4c806100206000396000f3fe608060405234801561001057600080fd5b506004361061004c5760003560e01c80638896e42514610051578063996d50bf1461006d578063bfeb163314610089578063e09193b6146100bb575b600080fd5b61006b6004803603810190610066919061097e565b6100eb565b005b61008760048036038101906100829190610a13565b6102ed565b005b6100a3600480360381019061009e9190610af2565b610525565b6040516100b293929190610bda565b60405180910390f35b6100d560048036038101906100d09190610c1f565b610765565b6040516100e29190610c4c565b60405180910390f35b6000803373ffffffffffffffffffffffffffffffffffffffff1673ffffffffffffffffffffffffffffffffffffffff16815260200190815260200160002080549050851061016e576040517f08c379a000000000000000000000000000000000000000000000000000000000815260040161016590610cb3565b60405180910390fd5b600084849050116101b4576040517f08c379a00000000000000000000000000000000000000000000000000000000081526004016101ab90610d1f565b60405180910390fd5b600082829050116101fa576040517f08c379a00000000000000000000000000000000000000000000000000000000081526004016101f190610d8b565b60405180910390fd5b60008060003373ffffffffffffffffffffffffffffffffffffffff1673ffffffffffffffffffffffffffffffffffffffff168152602001908152602001600020868154811061024c5761024b610dab565b5b90600052602060002090600302019050848482600001919061026f9291906107b0565b5082828260010191906102839291906107b0565b504281600201819055503373ffffffffffffffffffffffffffffffffffffffff167f3ec84a875f0e57305a6daa4b86fe343cc59322f122f0f65902033a647bf429628787878787426040516102dd96959493929190610e16565b60405180910390a2505050505050565b60008484905011610333576040517f08c379a000000000000000000000000000000000000000000000000000000000815260040161032a90610d1f565b60405180910390fd5b60008282905011610379576040517f08c379a000000000000000000000000000000000000000000000000000000000815260040161037090610d8b565b60405180910390fd5b6000803373ffffffffffffffffffffffffffffffffffffffff1673ffffffffffffffffffffffffffffffffffffffff168152602001908152602001600020604051806060016040528086868080601f016020809104026020016040519081016040528093929190818152602001838380828437600081840152601f19601f82011690508083019250505050505050815260200184848080601f016020809104026020016040519081016040528093929190818152602001838380828437600081840152601f19601f820116905080830192505050505050508152602001428152509080600181540180825580915050600190039060005260206000209060030201600090919091909150600082015181600001908051906020019061049f929190610836565b5060208201518160010190805190602001906104bc929190610836565b506040820151816002015550503373ffffffffffffffffffffffffffffffffffffffff167fbfefa59b16be4b348ad74254e31f16a631ec47799e24b3cba0ba5df3e9c21cab8585858542604051610517959493929190610e6d565b60405180910390a250505050565b60608060008060008673ffffffffffffffffffffffffffffffffffffffff1673ffffffffffffffffffffffffffffffffffffffff1681526020019081526020016000208054905084106105ad576040517f08c379a00000000000000000000000000000000000000000000000000000000081526004016105a490610cb3565b60405180910390fd5b60008060008773ffffffffffffffffffffffffffffffffffffffff1673ffffffffffffffffffffffffffffffffffffffff16815260200190815260200160002085815481106105ff576105fe610dab565b5b906000526020600020906003020160405180606001604052908160008201805461062890610ee5565b80601f016020809104026020016040519081016040528092919081815260200182805461065490610ee5565b80156106a15780601f10610676576101008083540402835291602001916106a1565b820191906000526020600020905b81548152906001019060200180831161068457829003601f168201915b505050505081526020016001820180546106ba90610ee5565b80601f01602080910402602001604051908101604052809291908181526020018280546106e690610ee5565b80156107335780601f1061070857610100808354040283529160200191610733565b820191906000526020600020905b81548152906001019060200180831161071657829003601f168201915b505050505081526020016002820154815250509050806000015181602001518260400151935093509350509250925092565b60008060008373ffffffffffffffffffffffffffffffffffffffff1673ffffffffffffffffffffffffffffffffffffffff168152602001908152602001600020805490509050919050565b8280546107bc90610ee5565b90600052602060002090601f0160209004810192826107de5760008555610825565b82601f106107f757803560ff1916838001178555610825565b82800160010185558215610825579182015b82811115610824578235825591602001919060010190610809565b5b50905061083291906108bc565b5090565b82805461084290610ee5565b90600052602060002090601f01602090048101928261086457600085556108ab565b82601f1061087d57805160ff19168380011785556108ab565b828001600101855582156108ab579182015b828111156108aa57825182559160200191906001019061088f565b5b5090506108b891906108bc565b5090565b5b808211156108d55760008160009055506001016108bd565b5090565b600080fd5b600080fd5b6000819050919050565b6108f6816108e3565b811461090157600080fd5b50565b600081359050610913816108ed565b92915050565b600080fd5b600080fd5b600080fd5b60008083601f84011261093e5761093d610919565b5b8235905067ffffffffffffffff81111561095b5761095a61091e565b5b60208301915083600182028301111561097757610976610923565b5b9250929050565b60008060008060006060868803121561099a576109996108d9565b5b60006109a888828901610904565b955050602086013567ffffffffffffffff8111156109c9576109c86108de565b5b6109d588828901610928565b9450945050604086013567ffffffffffffffff8111156109f8576109f76108de565b5b610a0488828901610928565b92509250509295509295909350565b60008060008060408587031215610a2d57610a2c6108d9565b5b600085013567ffffffffffffffff811115610a4b57610a4a6108de565b5b610a5787828801610928565b9450945050602085013567ffffffffffffffff811115610a7a57610a796108de565b5b610a8687828801610928565b925092505092959194509250565b600073ffffffffffffffffffffffffffffffffffffffff82169050919050565b6000610abf82610a94565b9050919050565b610acf81610ab4565b8114610ada57600080fd5b50565b600081359050610aec81610ac6565b92915050565b60008060408385031215610b0957610b086108d9565b5b6000610b1785828601610add565b9250506020610b2885828601610904565b9150509250929050565b600081519050919050565b600082825260208201905092915050565b60005b83811015610b6c578082015181840152602081019050610b51565b83811115610b7b576000848401525b50505050565b6000601f19601f8301169050919050565b6000610b9d82610b32565b610ba78185610b3d565b9350610bb7818560208601610b4e565b610bc081610b81565b840191505092915050565b610bd4816108e3565b82525050565b60006060820190508181036000830152610bf48186610b92565b90508181036020830152610c088185610b92565b9050610c176040830184610bcb565b949350505050565b600060208284031215610c3557610c346108d9565b5b6000610c4384828501610add565b91505092915050565b6000602082019050610c616000830184610bcb565b92915050565b7f496e76616c696420696e64657800000000000000000000000000000000000000600082015250565b6000610c9d600d83610b3d565b9150610ca882610c67565b602082019050919050565b60006020820190508181036000830152610ccc81610c90565b9050919050565b7f49504653206861736820697320656d7074790000000000000000000000000000600082015250565b6000610d09601283610b3d565b9150610d1482610cd3565b602082019050919050565b60006020820190508181036000830152610d3881610cfc565b9050919050565b7f46696c65206e616d6520697320656d7074790000000000000000000000000000600082015250565b6000610d75601283610b3d565b9150610d8082610d3f565b602082019050919050565b60006020820190508181036000830152610da481610d68565b9050919050565b7f4e487b7100000000000000000000000000000000000000000000000000000000600052603260045260246000fd5b82818337600083830152505050565b6000610df58385610b3d565b9350610e02838584610dda565b610e0b83610b81565b840190509392505050565b6000608082019050610e2b6000830189610bcb565b8181036020830152610e3e818789610de9565b90508181036040830152610e53818587610de9565b9050610e626060830184610bcb565b979650505050505050565b60006060820190508181036000830152610e88818789610de9565b90508181036020830152610e9d818587610de9565b9050610eac6040830184610bcb565b9695505050505050565b7f4e487b7100000000000000000000000000000000000000000000000000000000600052602260045260246000fd5b60006002820490506001821680610efd57607f821691505b602082108103610f1057610f0f610eb6565b5b5091905056fea26469706673582212208fe0ac905e347b87de00b122839210d8df65315a7f7375796c81158519e25b7764736f6c634300080d0033",
  "immutableReferences": {},
  "source": "// SPDX-License-Identifier: MIT\r\npragma solidity ^0.8.13;\r\n\r\ncontract FileStorage {\r\n\r\n    struct File {\r\n        string ipfsHash;\r\n        string fileName;\r\n        uint256 timestamp;\r\n    }\r\n                                                        // private for encapsulation\r\n    mapping(address => File[]) private userFiles;\r\n\r\n    event FileUploaded(\r\n        address indexed user,\r\n        string ipfsHash,\r\n        string fileName,\r\n        uint256 timestamp\r\n    );\r\n\r\n    // Added to satisfy \"update\" requirement\r\n    event FileUpdated(\r\n        address indexed user,\r\n        uint256 index,\r\n        string ipfsHash,\r\n        string fileName,\r\n        uint256 timestamp\r\n    );\r\n\r\n     //         \r\n    // call data cheaper than memory and we dont edit any thing \r\n    function uploadFile(string calldata _ipfsHash, string calldata _fileName) external {\r\n        // Validation\r\n        require(bytes(_ipfsHash).length > 0, \"IPFS hash is empty\");\r\n        require(bytes(_fileName).length > 0, \"File name is empty\");\r\n\r\n        //store\r\n        userFiles[msg.sender].push(\r\n            File(_ipfsHash, _fileName, block.timestamp)\r\n        );\r\n\r\n        emit FileUploaded(msg.sender, _ipfsHash, _fileName, block.timestamp);\r\n    }\r\n\r\n    // function to update an existing file\r\n    function updateFile(uint256 _index, string calldata _newIpfsHash, string calldata _newFileName) external {\r\n        require(_index < userFiles[msg.sender].length, \"Invalid index\");\r\n        require(bytes(_newIpfsHash).length > 0, \"IPFS hash is empty\");\r\n        require(bytes(_newFileName).length > 0, \"File name is empty\");\r\n\r\n        File storage file = userFiles[msg.sender][_index];\r\n        file.ipfsHash = _newIpfsHash;\r\n        file.fileName = _newFileName;\r\n        file.timestamp = block.timestamp;\r\n\r\n        emit FileUpdated(msg.sender, _index, _newIpfsHash, _newFileName, block.timestamp);\r\n    }\r\n\r\n    function getFile(address _user, uint256 _index)\r\n        public\r\n        view\r\n        returns (string memory, string memory, uint256)\r\n    {\r\n        require(_index < userFiles[_user].length, \"Invalid index\");\r\n        File memory file = userFiles[_user][_index];\r\n        return (file.ipfsHash, file.fileName, file.timestamp); \r\n    }\r\n\r\n    function getFilesCount(address _user) public view returns (uint256) {\r\n        return userFiles[_user].length;\r\n    }\r\n}",
  "sourcePath": "C:\\Users\\MORESA_JR\\Documents\\IPFS_Hash_Store_Project\\contracts\\FileStorage.sol",
  "compiler": {
    "name": "solc",
    "version": "0.8.13+commit.abaa5c0e.Emscripten.clang"
  },
  "schemaVersion": "3.4.16",
  "updatedAt": "2025-12-25T06:38:28.460Z",
  "networkType": "ethereum",
  "devdoc": {
    "kind": "dev",
    "methods": {},
    "version": 1
  },
  "userdoc": {
    "kind": "user",
    "methods": {},
    "version": 1
  }
}